{
  "_format": "hh-sol-artifact-1",
  "contractName": "MockHashpinNFT",
  "sourceName": "contracts/test/MockHashpinNFT.sol",
  "abi": [
    {
      "inputs": [
        {
          "internalType": "bytes32",
          "name": "",
          "type": "bytes32"
        }
      ],
      "name": "hashOwners",
      "outputs": [
        {
          "internalType": "address",
          "name": "",
          "type": "address"
        }
      ],
      "stateMutability": "view",
      "type": "function"
    },
    {
      "inputs": [
        {
          "internalType": "address",
          "name": "to",
          "type": "address"
        },
        {
          "internalType": "bytes32",
          "name": "hash",
          "type": "bytes32"
        },
        {
          "internalType": "bytes",
          "name": "",
          "type": "bytes"
        }
      ],
      "name": "mint",
      "outputs": [
        {
          "internalType": "uint256",
          "name": "",
          "type": "uint256"
        }
      ],
      "stateMutability": "nonpayable",
      "type": "function"
    },
    {
      "inputs": [
        {
          "internalType": "bytes32",
          "name": "",
          "type": "bytes32"
        }
      ],
      "name": "minted",
      "outputs": [
        {
          "internalType": "bool",
          "name": "",
          "type": "bool"
        }
      ],
      "stateMutability": "view",
      "type": "function"
    },
    {
      "inputs": [
        {
          "internalType": "bytes4",
          "name": "interfaceId",
          "type": "bytes4"
        }
      ],
      "name": "supportsInterface",
      "outputs": [
        {
          "internalType": "bool",
          "name": "",
          "type": "bool"
        }
      ],
      "stateMutability": "view",
      "type": "function"
    }
  ],
  "bytecode": "0x608060405234801561001057600080fd5b50610265806100206000396000f3fe608060405234801561001057600080fd5b506004361061004c5760003560e01c806301ffc9a7146100515780638ccc5f801461008a578063b6483bab146100ad578063f76c93941461010f575b600080fd5b61007561005f366004610150565b6001600160e01b031916632dedfc8360e21b1490565b60405190151581526020015b60405180910390f35b610075610098366004610181565b60006020819052908152604090205460ff1681565b6101016100bb36600461019a565b600083815260208181526040808320805460ff19166001908117909155909152902080546001600160a01b0386166001600160a01b031990911617905582949350505050565b604051908152602001610081565b61013861011d366004610181565b6001602052600090815260409020546001600160a01b031681565b6040516001600160a01b039091168152602001610081565b60006020828403121561016257600080fd5b81356001600160e01b03198116811461017a57600080fd5b9392505050565b60006020828403121561019357600080fd5b5035919050565b600080600080606085870312156101b057600080fd5b84356001600160a01b03811681146101c757600080fd5b935060208501359250604085013567ffffffffffffffff808211156101eb57600080fd5b818701915087601f8301126101ff57600080fd5b81358181111561020e57600080fd5b88602082850101111561022057600080fd5b9598949750506020019450505056fea264697066735822122008ac6cf678b27cdd5da1117f38a048c757e1aa19d1e9ca80b913c673d49b53e664736f6c63430008140033",
  "linkReferences": {},
  "deployedLinkReferences": {}
}